{"abi":[{"type":"constructor","inputs":[{"name":"priviledgedUserList","type":"address[]","internalType":"address[]"}],"stateMutability":"nonpayable"},{"type":"receive","stateMutability":"payable"},{"type":"function","name":"algebraSwapCallback","inputs":[{"name":"amount0Delta","type":"int256","internalType":"int256"},{"name":"amount1Delta","type":"int256","internalType":"int256"},{"name":"data","type":"bytes","internalType":"bytes"}],"outputs":[],"stateMutability":"nonpayable"},{"type":"function","name":"owner","inputs":[],"outputs":[{"name":"","type":"address","internalType":"address"}],"stateMutability":"view"},{"type":"function","name":"pancakeV3SwapCallback","inputs":[{"name":"amount0Delta","type":"int256","internalType":"int256"},{"name":"amount1Delta","type":"int256","internalType":"int256"},{"name":"data","type":"bytes","internalType":"bytes"}],"outputs":[],"stateMutability":"nonpayable"},{"type":"function","name":"pause","inputs":[],"outputs":[],"stateMutability":"nonpayable"},{"type":"function","name":"priviledgedUsers","inputs":[{"name":"","type":"address","internalType":"address"}],"outputs":[{"name":"","type":"bool","internalType":"bool"}],"stateMutability":"view"},{"type":"function","name":"processRoute","inputs":[{"name":"tokenIn","type":"address","internalType":"address"},{"name":"amountIn","type":"uint256","internalType":"uint256"},{"name":"tokenOut","type":"address","internalType":"address"},{"name":"amountOutMin","type":"uint256","internalType":"uint256"},{"name":"to","type":"address","internalType":"address"},{"name":"route","type":"bytes","internalType":"bytes"}],"outputs":[{"name":"amountOut","type":"uint256","internalType":"uint256"}],"stateMutability":"payable"},{"type":"function","name":"renounceOwnership","inputs":[],"outputs":[],"stateMutability":"nonpayable"},{"type":"function","name":"resume","inputs":[],"outputs":[],"stateMutability":"nonpayable"},{"type":"function","name":"setPriviledge","inputs":[{"name":"user","type":"address","internalType":"address"},{"name":"priviledge","type":"bool","internalType":"bool"}],"outputs":[],"stateMutability":"nonpayable"},{"type":"function","name":"transferOwnership","inputs":[{"name":"newOwner","type":"address","internalType":"address"}],"outputs":[],"stateMutability":"nonpayable"},{"type":"function","name":"uniswapV3SwapCallback","inputs":[{"name":"amount0Delta","type":"int256","internalType":"int256"},{"name":"amount1Delta","type":"int256","internalType":"int256"},{"name":"data","type":"bytes","internalType":"bytes"}],"outputs":[],"stateMutability":"nonpayable"},{"type":"event","name":"OwnershipTransferred","inputs":[{"name":"previousOwner","type":"address","indexed":true,"internalType":"address"},{"name":"newOwner","type":"address","indexed":true,"internalType":"address"}],"anonymous":false},{"type":"event","name":"Route","inputs":[{"name":"from","type":"address","indexed":true,"internalType":"address"},{"name":"to","type":"address","indexed":false,"internalType":"address"},{"name":"tokenIn","type":"address","indexed":true,"internalType":"address"},{"name":"tokenOut","type":"address","indexed":true,"internalType":"address"},{"name":"amountIn","type":"uint256","indexed":false,"internalType":"uint256"},{"name":"amountOutMin","type":"uint256","indexed":false,"internalType":"uint256"},{"name":"amountOut","type":"uint256","indexed":false,"internalType":"uint256"}],"anonymous":false},{"type":"error","name":"AddressEmptyCode","inputs":[{"name":"target","type":"address","internalType":"address"}]},{"type":"error","name":"AddressInsufficientBalance","inputs":[{"name":"account","type":"address","internalType":"address"}]},{"type":"error","name":"FailedInnerCall","inputs":[]},{"type":"error","name":"MinimalOutputBalanceViolation","inputs":[{"name":"amountOut","type":"uint256","internalType":"uint256"}]},{"type":"error","name":"OwnableInvalidOwner","inputs":[{"name":"owner","type":"address","internalType":"address"}]},{"type":"error","name":"OwnableUnauthorizedAccount","inputs":[{"name":"account","type":"address","internalType":"address"}]},{"type":"error","name":"SafeERC20FailedOperation","inputs":[{"name":"token","type":"address","internalType":"address"}]}],"bytecode":{"object":"0x60406080604052346200018357620022d5908138038062000020816200019e565b9384398201906020908184840312620001835783516001600160401b03948582116200018357019280601f850112156200018357835194851162000188576005938560051b908480620000758185016200019e565b80998152019282010192831162000183578401905b82821062000162575050503315620001495760008054336001600160a01b03198216811783556001600160a01b039182167f8be0079c531659141344cd1fd0a4f28419497f9722a3daafe3b4186f6b6457e08480a3600280546001600160b81b031916760101010000000000000000000000000000000000000001179055815b8651811015620001395780861b8701850151821683526001808652848420805460ff191682179055016200010a565b6040516121109081620001c58239f35b604051631e4fbdf760e01b815260006004820152602490fd5b81516001600160a01b0381168103620001835781529084019084016200008a565b600080fd5b634e487b7160e01b600052604160045260246000fd5b6040519190601f01601f191682016001600160401b03811183821017620001885760405256fe6080604052600436101561001b575b361561001957600080fd5b005b60003560e01c8063046f7da2146100c257806323a69e751461009a5780632646478b146100bd5780632c8958f61461009a578063715018a6146100b85780638456cb59146100b35780638da5cb5b146100ae5780639a1f3406146100a9578063cd0fb7a7146100a4578063f2fde38b1461009f5763fa461e330361000e575b610135565b61056e565b61052c565b6104d1565b61049e565b610443565b6103e8565b610334565b6100d7565b60009103126100d257565b600080fd5b346100d2576000806003193601126101325780546001600160a01b03163314801561011c575b610106906105fa565b6002805460ff60b01b1916600160b01b17905580f35b503381526001602052604081205460ff166100fd565b80fd5b346100d25760603660031901126100d25760243560043560443567ffffffffffffffff8082116100d257366023830112156100d25781600401359081116100d2576024908183019201013681116100d257600254926001600160a01b03906101a03383871614610741565b6000958682139384156102af5782955b6101bb8988136107b3565b60019760a81c60ff168803610284576002805460ff60a81b1916600160a91b1790556101e7919061083d565b92909460001461027357506101fb90610872565b85905b905b610240575b5050600280546001600160a01b03191660011790556102279350339116610d21565b6002805460ff60a81b1916600160a81b17905580f35b80f35b815460018301546002840160051b01111561026e576102689061026283610d8b565b83610e17565b85610200565b610205565b61027d9150610872565b85906101fe565b61023d97503395506102aa945061029e9350839250610825565b6001600160a01b031690565b610d21565b81956101b0565b6001600160a01b038116036100d257565b634e487b7160e01b600052604160045260246000fd5b67ffffffffffffffff81116102f157604052565b6102c7565b90601f8019910116810190811067ffffffffffffffff8211176102f157604052565b67ffffffffffffffff81116102f157601f01601f191660200190565b60c03660031901126100d25760043561034c816102b6565b604435610358816102b6565b60843590610365826102b6565b60a4359167ffffffffffffffff83116100d257366023840112156100d25782600401359361039285610318565b926103a060405194856102f6565b85845236602487870101116100d25760006020876103e49860246103d499018389013786010152606435916024359061065f565b6040519081529081906020820190565b0390f35b346100d25760008060031936011261013257610402610cf5565b80546001600160a01b03198116825581906001600160a01b03167f8be0079c531659141344cd1fd0a4f28419497f9722a3daafe3b4186f6b6457e08280a380f35b346100d2576000806003193601126101325780546001600160a01b031633148015610488575b610472906105fa565b6002805460ff60b01b1916600160b11b17905580f35b503381526001602052604081205460ff16610469565b346100d25760003660031901126100d2576000546040516001600160a01b039091168152602090f35b801515036100d257565b346100d25760403660031901126100d2576004356104ee816102b6565b602435906104fb826104c7565b610503610cf5565b60018060a01b0316600052600160205260406000209060ff801983541691151516179055600080f35b346100d25760203660031901126100d257600435610549816102b6565b60018060a01b03166000526001602052602060ff604060002054166040519015158152f35b346100d25760203660031901126100d25760043561058b816102b6565b610593610cf5565b6001600160a01b0390811680156105e157600080546001600160a01b03198116831782559092167f8be0079c531659141344cd1fd0a4f28419497f9722a3daafe3b4186f6b6457e08380a380f35b604051631e4fbdf760e01b815260006004820152602490fd5b1561060157565b60405162461bcd60e51b815260206004820152603060248201527f52503a2063616c6c6572206973206e6f7420746865206f776e6572206f72206160448201526f10383934bb34b632b3b2b2103ab9b2b960811b6064820152608490fd5b9493929190600254600160ff8260a01c16036106fc5760ff60019160b01c16036106b7576002805460ff60a01b1916600160a11b17905561069f956109d1565b6002805460ff60a01b1916600160a01b17905590565b565b60405162461bcd60e51b815260206004820152601860248201527f526f75746550726f636573736f722069732070617573656400000000000000006044820152606490fd5b60405162461bcd60e51b815260206004820152601860248201527f526f75746550726f636573736f72206973206c6f636b656400000000000000006044820152606490fd5b1561074857565b60405162461bcd60e51b815260206004820152603e60248201527f526f75746550726f636573736f722e756e697377617056335377617043616c6c60448201527f6261636b3a2063616c6c2066726f6d20756e6b6e6f776e20736f7572636500006064820152608490fd5b156107ba57565b60405162461bcd60e51b815260206004820152603960248201527f526f75746550726f636573736f722e756e697377617056335377617043616c6c60448201527f6261636b3a206e6f7420706f73697469766520616d6f756e74000000000000006064820152608490fd5b908160209103126100d2573561083a816102b6565b90565b91908260409103126100d25760208235610856816102b6565b92013590565b634e487b7160e01b600052601160045260246000fd5b600160ff1b81146108835760000390565b61085c565b908160209103126100d2575190565b6040513d6000823e3d90fd5b3d156108ce573d906108b482610318565b916108c260405193846102f6565b82523d6000602084013e565b606090565b156108da57565b60405162461bcd60e51b815260206004820152603760248201527f526f75746550726f636573736f722e777261704e61746976653a204e6174697660448201527f6520746f6b656e207472616e73666572206661696c65640000000000000000006064820152608490fd5b906001820180921161088357565b9190820180921161088357565b1561096757565b60405162461bcd60e51b815260206004820152602f60248201527f526f75746550726f636573736f723a204d696e696d616c20696e70757420626160448201526e3630b731b2903b34b7b630ba34b7b760891b6064820152608490fd5b9190820391821161088357565b90959473eeeeeeeeeeeeeeeeeeeeeeeeeeeeeeeeeeeeeeee946001600160a01b0380841695919491939190878714908115610ca357806000935b16988914936000908515610c3d57610a3a9150610a348d610a2d8b3199610f01565b9283610e17565b50610f62565b8315610be2576000808080610a5d9447908c165af1610a576108a3565b506108d3565b15610b8957610a7890610a718a6000610953565b1015610960565b60009015610b1d575082315b610a8e8383610953565b8110610aed577f2db5ddd0b42bdbca0d69ea16f234a870a485854ae0d91f16643d6f317d8b89949291610ac0916109c4565b604080516001600160a01b03959095168552602085019890985296830152606082018690523391608090a4565b610b1991610afa916109c4565b60405163963b34a560e01b815260048101919091529081906024820190565b0390fd5b6040516370a0823160e01b81526001600160a01b03851660048201526020816024818a5afa918215610b845791610b55575b50610a84565b610b77915060203d602011610b7d575b610b6f81836102f6565b810190610888565b38610b4f565b503d610b65565b610897565b6040516370a0823160e01b8152336004820152906020826024818a5afa8015610b84578a610a7191610a7894600091610bc3575b50610953565b610bdc915060203d602011610b7d57610b6f81836102f6565b38610bbd565b506040516370a0823160e01b81523060048201526020816024818c5afa8015610b8457610c1991600091610c1e575b50878a610d21565b610a5d565b610c37915060203d602011610b7d57610b6f81836102f6565b38610c11565b6040516370a0823160e01b81526001600160a01b038a1660048201526020816024818f5afa908115610b8457610a2d8f9192610a3493610a3a9691610c84575b5099610f01565b610c9d915060203d602011610b7d57610b6f81836102f6565b38610c7d565b6040516370a0823160e01b81523360048201526020816024818c5afa8015610b84578291600091610cd6575b5093610a0b565b610cef915060203d602011610b7d57610b6f81836102f6565b38610ccf565b6000546001600160a01b03163303610d0957565b60405163118cdaa760e01b8152336004820152602490fd5b60405163a9059cbb60e01b60208201526001600160a01b039290921660248301526044808301939093529181526106b591610d5d6064836102f6565b610fd0565b60031b906107f860f883169216820361088357565b9061ffff8092166101000391821161088357565b80548060051c60206014830881546014938401909455929160ff841610610dde57509061083a9161ffff610dd060ff610dca60018060a01b0395610d62565b16610d77565b161c1660018060a01b031690565b610e00600160ff92015461ffff610df884610dca88610d62565b161c93610d62565b161b8101809111610883576001600160a01b031690565b919060ff610e2484611042565b1680610e395750610e3492611b4f565b600090565b60018103610e4b575061083a92611809565b60028103610e5d5750610e34926115fb565b60038103610e7157505050610e3490611437565b600403610e8157610e34926110d7565b60405162461bcd60e51b815260206004820152602160248201527f526f75746550726f636573736f723a20556e6b6e6f776e20706f6f6c207479706044820152606560f81b6064820152608490fd5b8115610eda570490565b634e487b7160e01b600052601260045260246000fd5b60ff1660ff81146108835760010190565b60c060049081558151600581815591939290601f811615610f5957610f289060051c610945565b915b60005b8360ff821610610f3d5750505050565b806001610f549201831b8401516006820155610ef0565b610f2d565b60051c91610f2a565b6001810154600090601f811615610fb257610f7f9060051c610945565b915b600283018093116108835760005b8360ff821610610f9f5750505050565b8083610fad92840155610ef0565b610f8f565b60051c91610f81565b908160209103126100d2575161083a816104c7565b600080610ff99260018060a01b03169360208151910182865af1610ff26108a3565b9083612077565b8051908115159182611027575b505061100f5750565b60249060405190635274afe760e01b82526004820152fd5b61103a9250602080918301019101610fbb565b153880611006565b60ff9061ffff61106683610dca6020600186548060051c5497828201905508610d62565b161c1690565b1561107357565b60405162461bcd60e51b815260206004820152603660248201527f526f75746550726f636573736f722e7377617043757276653a204e6174697665604482015275081d1bdad95b881d1c985b9cd9995c8819985a5b195960521b6064820152608490fd5b91906110e283610d8b565b926110ec81611042565b6111016110f883611042565b60ff1660000b90565b936000958695860b946111166110f886611042565b870b9061112b61112587610d8b565b96610d8b565b6001600160a01b0398909773eeeeeeeeeeeeeeeeeeeeeeeeeeeeeeeeeeeeeeee968a939192918416888103611222575050604051630f7c084960e21b8152600f92830b60048201529390910b60248401525060448201849052600060648301529092602092849260849284929091165af1908115610b84578691611203575b50935b808316933085036111c2575b50505050505050565b169081036111f157505091808080936111e5955af16111df6108a3565b5061106c565b388080808080806111b9565b9091506111fe9350610d21565b6111e5565b61121c915060203d602011610b7d57610b6f81836102f6565b386111aa565b9061123a888860ff949796959733156113cd57611de3565b50166112b157604051630f7c084960e21b8152600f91820b600482015293900b6024840152604483019490945260006064830152909260209284926084928492165af1908115610b84578691611292575b50936111ad565b6112ab915060203d602011610b7d57610b6f81836102f6565b3861128b565b6040516370a0823160e01b808252306004830152602097938b1695909450908781602481895afa968715610b84578c918e986113ae575b501691823b156113aa57604051630f7c084960e21b8152600f91820b600482015291900b60248201526044810192909252600060648301529091908a908390608490829084905af1918215610b84578592611391575b5060405190815230600482015291829060249082905afa908115610b845761136e938992611374575b50506109c4565b936111ad565b61138a9250803d10610b7d57610b6f81836102f6565b3880611367565b8061139e6113a4926102dd565b806100c7565b3861133e565b8c80fd5b6113c6919850893d8b11610b7d57610b6f81836102f6565b96386112e8565b6113d983303384611d8a565b611de3565b60005b8381106113f15750506000910152565b81810151838201526020016113e1565b9060209161141a815180928185528580860191016113de565b601f01601f1916010190565b90602061083a928181520190611401565b61144081610d8b565b60608254928360051c906020948580820891835492878301825560ff928860ff83161560001461154a5750505082815401905590859392915b8160051c906000915b808284161061151b575050509160009491601f6114bf941690816114f3575b505060405194858094819363313eeab560e11b835260048301611426565b03926001600160a01b03165af18015610b84576114da575050565b816114f092903d10610b7d57610b6f81836102f6565b50565b9161150961150361151494610ef0565b92611af2565b915486830152611f26565b38806114a1565b919550919261153861152f61153e92610ef0565b95865490611f5b565b95610ef0565b90918795949392611482565b8297506115d66115dc926115e89698976115a6936115e29761156b88610d62565b9161159860018d01549460ff85169061159061158683610d77565b889061ffff161c90565b911b90610953565b896115ac6115a6839c611ebb565b60ff1690565b8211156115f1576115c26115a66115c792611ebb565b611af2565b95010190551b8c820152611ecc565b97611ebb565b906109c4565b91610ef0565b90859392611479565b506115c781611af2565b919061160683611042565b9261161081610d8b565b916001858116036116a85750611627600291610d8b565b93161561165a575b6001600160a01b033082821603611647575b50505050565b6116519316610d21565b38808080611641565b6001600160a01b038316803b156100d25760008391600460405180948193630d0e30db60e41b83525af18015610b8457611695575b5061162f565b8061139e6116a2926102dd565b3861168f565b91936002915016156116d6575b506106b5916000918291829182916001600160a01b03165af1610a576108a3565b3315611748575b6001600160a01b031691823b156100d257604051632e1a7d4d60e01b815260048101839052926000908490602490829084905af1928315610b845760008093819382936106b597611735575b509550935050506116b5565b8061139e611742926102dd565b38611729565b61175d8230336001600160a01b038516611d8a565b6116dd565b91908260409103126100d2576020825192015190565b6001600160a01b039182168152911515602083015260408201929092529116606082015260a06080820181905261083a92910190611401565b156117b857565b60405162461bcd60e51b8152602060048201526024808201527f526f75746550726f636573736f722e73776170556e6956333a20756e6578706560448201526318dd195960e21b6064820152608490fd5b929161181484610d8b565b9060ff61182086611042565b16151591600093600254600260ff8260a81c16146119ea575b50600280546001600160a01b0319166001600160a01b0384161790556118e79260409290916001600160a01b03986000908a9088156119cf576401000276a4935b600160ff61188e60025460ff9060a81c1690565b161484146119a85787516001600160a01b03909116602082015260408101919091526118c781606081015b03601f1981018352826102f6565b945b8651630251596160e31b8152978896879586938c3060048701611778565b0393165af1918215610b8457600091600093611975575b5015611966575061190e90610872565b9261193160025491600260ff8460a81c16149081938215611959575b50506117b1565b6119385750565b600280546001600160a01b0319166001600160a01b03909216919091179055565b600192501614388061192a565b6119709150610872565b61190e565b90925061199a915060403d6040116119a1575b61199281836102f6565b810190611762565b91386118fe565b503d611988565b87516001600160a01b03909116602082015290506119c981604081016118b9565b946118c9565b73fffd8963efd1fc6a506488495d951d5263988d259361187a565b6001600160a01b031694506040611839565b51906001600160701b03821682036100d257565b908160609103126100d257611a24816119fc565b916040611a33602084016119fc565b92015163ffffffff811681036100d25790565b15611a4d57565b60405162461bcd60e51b815260206004820152601360248201527257726f6e6720706f6f6c20726573657276657360681b6044820152606490fd5b9062ffffff809216620f42400391821161088357565b90620f42409182810292818404149015171561088357565b8181029291811591840414171561088357565b6040516020810181811067ffffffffffffffff8211176102f15760405260008152906000368137565b90611afc82610318565b611b0960405191826102f6565b8281528092611b1a601f1991610318565b0190602036910137565b909260809261083a95948352602083015260018060a01b031660408201528160608201520190611401565b611b5881610d8b565b92611b6282611042565b611b74611b6e84610d8b565b93611f92565b9130611d6257611b8e90866001600160a01b038716610d21565b604051630240bc6b60e21b81526001600160a01b038681169691959091906060876004818b5afa968715610b8457600090600098611d28575b5060ff6001916001600160701b0380911699169589151580611d1f575b611bed90611a46565b1614968715611d1257602091611c2c9195935b6040516370a0823160e01b81526001600160a01b03909116600482015294859283919082906024820190565b0392165afa938415610b8457611c7d611c76611c8392611c70611c68611c6289611c8e9b611c889a600091611cf3575b506109c4565b92611a88565b62ffffff1690565b90611ab6565b9283611ab6565b93611a9e565b610953565b90610ed0565b9115611ceb57600091925b611ca1611ac9565b93813b156100d25760008094611ccd6040519788968795869463022c0d9f60e01b865260048601611b24565b03925af18015610b8457611cde5750565b8061139e6106b5926102dd565b600092611c99565b611d0c915060203d602011610b7d57610b6f81836102f6565b38611c5c565b91602091611c2c91611c00565b50861515611be4565b60ff985060019150611d519060603d606011611d5b575b611d4981836102f6565b810190611a10565b5098909150611bc7565b503d611d3f565b3315611d6f575b50611b8e565b611d849086336001600160a01b038816611d8a565b38611d69565b6040516323b872dd60e01b60208201526001600160a01b03928316602482015292909116604483015260648083019390935291815260a081019181831067ffffffffffffffff8411176102f1576106b592604052610fd0565b9091611df0818484611ff6565b928315611dfe575b50505090565b9091925060018060a01b03604051602081019163095ea7b360e01b835280841660248301526000604483015260448252608082019282841067ffffffffffffffff8511176102f15760008094938194604052519288165af192611e5f6108a3565b84611e89575b5083611e77575b505050388080611df8565b611e819350611ff6565b388080611e6c565b80519194508115918215611ea1575b50509238611e65565b611eb49250602080918301019101610fbb565b3880611e98565b60ff166020039060ff821161088357565b90604051918260605160005b818110611f0d57509060206106b593611f018294840191838301600081528151948592016113de565b010380855201836102f6565b6020919250806080015182828801015201908491611ed8565b60206106b5919392936040519481611f4787935180928680870191016113de565b8201611f01825180938680850191016113de565b60406106b59193929381519481611f7c8793518092602080870191016113de565b82019060208201520360208101855201836102f6565b80548060051c60206003830881546003938401909455929160ff841610611fc9575061ffff61106660ff610dca62ffffff95610d62565b611fe3600160ff92015461ffff610df884610dca88610d62565b161b81018091116108835762ffffff1690565b60405163095ea7b360e01b602082019081526001600160a01b0390931660248201526044810193909352600092839290839061203581606481016118b9565b51926001600160a01b03165af161204a6108a3565b81612053575090565b805180159250821561206457505090565b61083a9250602080918301019101610fbb565b9061209e575080511561208c57805190602001fd5b604051630a12f52160e11b8152600490fd5b815115806120d1575b6120af575090565b604051639996b31560e01b81526001600160a01b039091166004820152602490fd5b50803b156120a756fea26469706673582212202d0ce1d12e2131e32a7aed0f74cd996234636ea644dc97ceb6a4fe6a40193e8664736f6c63430008180033","linkReferences":{}},"methodIdentifiers":{"algebraSwapCallback(int256,int256,bytes)":"2c8958f6","owner()":"8da5cb5b","pancakeV3SwapCallback(int256,int256,bytes)":"23a69e75","pause()":"8456cb59","priviledgedUsers(address)":"cd0fb7a7","processRoute(address,uint256,address,uint256,address,bytes)":"2646478b","renounceOwnership()":"715018a6","resume()":"046f7da2","setPriviledge(address,bool)":"9a1f3406","transferOwnership(address)":"f2fde38b","uniswapV3SwapCallback(int256,int256,bytes)":"fa461e33"},"id":6}