{"abi":[{"type":"function","name":"optimalTwoPointArbInput","inputs":[{"name":"tokenIn","type":"address","internalType":"address"},{"name":"tokenOut","type":"address","internalType":"address"},{"name":"fee0","type":"uint24","internalType":"uint24"},{"name":"fee1","type":"uint24","internalType":"uint24"}],"outputs":[{"name":"","type":"int256","internalType":"int256"},{"name":"","type":"int256","internalType":"int256"},{"name":"","type":"bool","internalType":"bool"}],"stateMutability":"view"},{"type":"function","name":"optimalTwoPointArbInputPool","inputs":[{"name":"pool0Address","type":"address","internalType":"address"},{"name":"pool1Address","type":"address","internalType":"address"},{"name":"fee0","type":"uint24","internalType":"uint24"},{"name":"fee1","type":"uint24","internalType":"uint24"},{"name":"zeroForOne","type":"bool","internalType":"bool"}],"outputs":[{"name":"","type":"int256","internalType":"int256"},{"name":"","type":"int256","internalType":"int256"},{"name":"","type":"bool","internalType":"bool"}],"stateMutability":"view"}],"bytecode":{"object":"0x6080806040523461001a5761358c9081610020823930815050f35b600080fdfe61014080604052600436101561001457600080fd5b60003560e01c9081633cfab67e14610c45575063c1aaa9261461003657600080fd5b60803660031901126108fe5761004a611671565b61012052610056611687565b60e05261006161169d565b6100696116af565b604051630b4c774160e11b80825260e051610120516001600160a01b03908116600485015216602483015262ffffff8416604483015282918491731f98431c8ad98523631ae4a59f267346ea31f9849190602082606481865afa80156107da57602092600091610c28575b506001600160a01b0390811660805260405191825260e051610120518216600484015216602482015262ffffff8516604482015291829060649082905afa9081156107da57600091610bf9575b5060018060a01b031661010052610100519160405194633850c7bd60e01b865260e0866004816080515afa80156107da57600096600091610bcf575b5086948160405190633850c7bd60e01b825260e082600481610100515afa9485156107da57600092600096610b93575b5060e0516101205160009c949b8c95909289926001600160a01b038089168185161092811691161014610b66575b50505050505050604051936334324e9f60e21b855260208560048160018060a01b03608051165afa9485156107da57600095610b2a575b50604051976334324e9f60e21b895260208960048160018060a01b0361010051165afa9889156107da57600099610aee575b5060e051610120516001600160a01b0391821691161015610acc576401000276a49373fffd8963efd1fc6a506488495d951d5263988d25935b60405190630d34328160e11b825260208260048160018060a01b03608051165afa9081156107da57600091610a8a575b6001600160801b0392506040519a6102a48c6116c1565b60008c52600060208d015260018060a01b031660408c015260020b60608b015216608089015260405190630d34328160e11b825260208260048160018060a01b0361010051165afa9081156107da57600091610a48575b6001600160801b0392506040519a6103128c6116c1565b6000808d5260208d01526001600160a01b031660408c015260020b60608b01521660808901526001805b60408901516001600160a01b03878116911614159182610a2d575b82610a13575b5050806109e6575b15610991578886888a60406105418a8a6000956104486000996103bf6103896117fe565b848901516001600160a01b03908116825260e051610120516060880151608051949f928416919093161092909160020b906119be565b15158b89015260020b60208b01819052620d89e7198112156109745750620d89e71960208b01525b6103f760208b015160020b611f4d565b6001600160a01b031660608b015261040d6117fe565b60c0819052888801516001600160a01b0390811690915260e0516101205160608b015161010051928416919093161015929160020b906119be565b15158660c051015260020b80602060c0510152620d89e71981126000146109555750620d89e719602060c05101525b610489602060c051015160020b611f4d565b60018060a01b031680606060c05101528b8d60018060a01b0388850151169460018060a01b0360e0511660018060a01b0361012051161060001461093d5760608c01516001600160a01b038281169116105b1561091c5760806001600160801b0391955b01518a8a015160e051610120516001600160a01b0392831697949093169493929082169116101561090b576001600160a01b03821681115b156109035750935b6001600160801b0360808b01511695612469565b60c0809a96989a9995979951015260a060c0510152608060c051015260018060a01b031691015260c086015260a0850152608084015260018060a01b031660408b01528951610599608084015160c085015190611847565b600160ff1b8110156108fe576105ae91612859565b8a5260208a015160a0830151600160ff1b8110156108fe576105cf916128a2565b60208b01528a516105ec608060c051015160c08051015190611847565b600160ff1b8110156108fe5761060191612859565b8b5260208b015160c05160a00151600160ff1b8110156108fe57610624916128a2565b60208c015260408a015160608301516001600160a01b03918216911681036108cc5750506001906040810151610823575b60e051610120516001600160a01b039182169116101561081757602061067f91015160020b6118e4565b60020b60608a01525b60408a015160c051606001516001600160a01b03918216911681036107e6575060c0516040015160019250610701575b60e051610120516001600160a01b03918216911610156106ea57602060c051015160020b5b60020b60608b015261033c565b6106fc602060c051015160020b6118e4565b6106dd565b60c0516020015160405163f30dba9360e01b815260029190910b60048201526101008051829060249082906001600160a01b03165afa9081156107da576001600160801b039161077f916000916107a1575b5060e051610120518e9183916001600160a01b039182169116101561078a575b50608001518316612c10565b1660808b01526106b8565b849192506107996080916118c3565b929150610773565b6107c591506101003d610100116107d3575b6107bd81836116f3565b810190611854565b505050505050905038610753565b503d6107b3565b6040513d6000823e3d90fd5b60c051516001600160a01b03168103610800575b5061033c565b610809906128bf565b60020b60608b0152386107fa565b6020015160020b61067f565b602081015160020b6040519063f30dba9360e01b825260048201526101008160248160018060a01b03608051165afa9081156107da576001600160801b0391610898916000916108a3575b5060e051610120518e9183916001600160a01b0391821691161061078a5750608001518316612c10565b1660808b0152610655565b6108be91506101003d610100116107d3576107bd81836116f3565b50505050505090503861086e565b91519091906001600160a01b031681036108e7575b50610688565b6108f0906128bf565b60020b60608a0152386108e1565b600080fd5b90509361052d565b6001600160a01b0382168110610525565b5060608b01516001600160a01b0316936001600160801b03906080906104ed565b60608c01516001600160a01b038281169116116104db565b620d89e8809113610967575b50610477565b602060c051015238610961565b620d89e8809113610986575b506103e7565b60208b015238610980565b876109d360208980516109a68386015161191d565b13156109d7575b519201519260405193849384919260409194936060840195845260208401521515910152565b0390f35b600082850152600081526109ad565b506001600160801b036080880151161515801561036557506001600160801b036080890151161515610365565b9091508115610a25575b50388061035d565b905038610a1d565b60408b01516001600160a01b03878116911614159250610357565b90506020823d602011610a82575b81610a63602093836116f3565b810103126108fe57610a7c6001600160801b03926117ea565b906102fb565b3d9150610a56565b90506020823d602011610ac4575b81610aa5602093836116f3565b810103126108fe57610abe6001600160801b03926117ea565b9061028d565b3d9150610a98565b73fffd8963efd1fc6a506488495d951d5263988d25936401000276a49361025d565b9098506020813d602011610b22575b81610b0a602093836116f3565b810103126108fe57610b1b90611729565b9738610224565b3d9150610afd565b9094506020813d602011610b5e575b81610b46602093836116f3565b810103126108fe57610b5790611729565b93386101f2565b3d9150610b39565b965096509650965096509650965060019660805161010052608052949390929192388080808080806101bb565b909550610bb991925060e03d60e011610bc8575b610bb181836116f3565b810190611753565b5050505050919091943861018d565b503d610ba7565b9050610beb91965060e03d60e011610bc857610bb181836116f3565b50505050509590953861015d565b610c1b915060203d602011610c21575b610c1381836116f3565b81019061192e565b38610121565b503d610c09565b610c3f9150833d8511610c2157610c1381836116f3565b386100d4565b60a03660031901126108fe57610c59611671565b90610c62611687565b610c6a61169d565b90610c736116af565b926084351515608435036108fe57633850c7bd60e01b81526001600160a01b03918216948594921691808460e084600481885afa80156107da57600094600091611644575b50906004918599819860e08b60405196878092633850c7bd851b82525afa9788156107da57600095600099611618575b50600098959687876001600160a01b03808316908516108061160f575b6115e9575b50506040516334324e9f60e21b815299945060209350899250600491508290506001600160a01b038b165afa9586156107da576000966115ad575b506040516334324e9f60e21b81529960208b6004816001600160a01b038e165afa9a8b156107da5760009b611571575b506084351561154f576401000276a49473fffd8963efd1fc6a506488495d951d5263988d25945b604051630d34328160e11b81526020816004816001600160a01b038f165afa9081156107da57600091611508575b506001600160801b039060049460606040519e8f92610de8846116c1565b600084526000602085015260018060a01b0316604084015260020b9101521660808c015260208c60405194858092630d34328160e11b825260018060a01b03165afa9182156107da576000926114c6575b6001600160801b03935060405160a052610e5460a0516116c1565b600060a051526000602060a051015260018060a01b0316604060a051015260020b606060a051015216608060a05101526001805b60408a01516001600160a01b038781169116141591826114a9575b8261148f575b505080611460575b15611411578986888b61104289898e610f74600095610efa600098610ed46117fe565b60408601516001600160a01b031681526060860151909b60843592909160020b906119be565b151560408b0152600281900b60208b01819052620d89e71913156113f15750620d89e71960208a01525b610f3460208a015160020b611f4d565b6001600160a01b031660608a0152610f4a6117fe565b60a08051604001516001600160a01b031682525160600151909a6084351592909160020b906119be565b151560408a015260020b60208901819052620d89e7198112156113d45750620d89e71960208901525b8a8a610faf60208b015160020b611f4d565b6001600160a01b0390811660608c01819052604085015190911694608435156113bc5760608b01516001600160a01b038281169116105b1561139b5760806001600160801b0391955b015160a051604001516001600160a01b031694911691906084351561138b576001600160a01b031681115b1561138557508d935b6001600160801b03608060a05101511695612469565b60c08c015260a08b015260808a015260018060a01b0316604060a051015260c087015260a0860152608085015260018060a01b031660408d01528b51611091608085015160c086015190611847565b600160ff1b8110156108fe576110a691612859565b8c5260208c015160a0840151600160ff1b8110156108fe576110c7916128a2565b60208d015260a051516110e3608086015160c087015190611847565b600160ff1b8110156108fe576110f891612859565b60a05152602060a051015160a0850151600160ff1b8110156108fe5761111d916128a2565b60a0516020015260408c015160608401516001600160a01b039182169116810361135357505060019160408101516112bd575b608435156112b157602061116891015160020b6118e4565b60020b60608c01525b60a0516040015160608401516001600160a01b039182169116810361127d57505060019160408101516111d3575b608435156111be576020015160020b5b60020b606060a0510152610e88565b60206111ce91015160020b6118e4565b6111af565b8b610100602083015160020b60246040518094819363f30dba9360e01b8352600483015260018060a01b03165afa9081156107da576001600160801b039161123791600091611254575b508060843515611244575b5082608060a051015116612c10565b16608060a051015261119f565b61124e91506118c3565b38611228565b61126f91506101003d610100116107d3576107bd81836116f3565b50505050505090503861121d565b92519092906001600160a01b03168103611298575b50610e88565b6112a1906128bf565b60020b606060a05101528c611292565b6020015160020b611168565b8a610100602083015160020b60246040518094819363f30dba9360e01b8352600483015260018060a01b03165afa9081156107da576001600160801b03918e61131d92600092611328575b508160843561078a5750608001518316612c10565b1660808d0152611150565b6113449192506101003d610100116107d3576107bd81836116f3565b50505050505090509038611308565b92519092906001600160a01b0316810361136e575b50611171565b611377906128bf565b60020b60608c01528d611368565b9361102c565b6001600160a01b03168110611023565b5060608a01516001600160a01b0316936001600160801b0390608090610ff8565b60608b01516001600160a01b03828116911611610fe6565b620d89e88091136113e6575b50610f9d565b6020890152386113e0565b620d89e8809160020b13611406575b50610f24565b60208a015238611400565b878051611423602060a051015161191d565b131561144e575b5160a051602090810151604080519384529183015291151591810191909152606090f35b6000602060a05101526000815261142a565b506001600160801b0360808901511615158015610eb157506001600160801b03608060a0510151161515610eb1565b90915081156114a1575b508b80610ea9565b90508b611499565b60a051604001516001600160a01b03878116911614159250610ea3565b91506020833d602011611500575b816114e1602093836116f3565b810103126108fe576114fa6001600160801b03936117ea565b91610e39565b3d91506114d4565b90506020813d602011611547575b81611523602093836116f3565b810103126108fe5760049361153f6001600160801b03926117ea565b915093610dca565b3d9150611516565b73fffd8963efd1fc6a506488495d951d5263988d25946401000276a494610d9c565b909a506020813d6020116115a5575b8161158d602093836116f3565b810103126108fe5761159e90611729565b998b610d75565b3d9150611580565b9095506020813d6020116115e1575b816115c9602093836116f3565b810103126108fe576115da90611729565b948a610d45565b3d91506115bc565b975097509750989750985098509850506001939694919790959289808080808080610d0a565b50608435610d05565b90985061163591955060e03d60e011610bc857610bb181836116f3565b5050505050949094978d610ce8565b6004929550611662915060e03d60e011610bc857610bb181836116f3565b50505050509490949091610cb8565b600435906001600160a01b03821682036108fe57565b602435906001600160a01b03821682036108fe57565b6044359062ffffff821682036108fe57565b6064359062ffffff821682036108fe57565b60a0810190811067ffffffffffffffff8211176116dd57604052565b634e487b7160e01b600052604160045260246000fd5b90601f8019910116810190811067ffffffffffffffff8211176116dd57604052565b51906001600160a01b03821682036108fe57565b51908160020b82036108fe57565b519061ffff821682036108fe57565b519081151582036108fe57565b908160e09103126108fe5761176781611715565b9161177460208301611729565b9161178160408201611737565b9161178e60608301611737565b9161179b60808201611737565b9160a082015160ff811681036108fe5760c06117b8919301611746565b90565b6001600160a01b0391821690821603919082116117d457565b634e487b7160e01b600052601160045260246000fd5b51906001600160801b03821682036108fe57565b6040519060e0820182811067ffffffffffffffff8211176116dd576040528160c06000918281528260208201528260408201528260608201528260808201528260a08201520152565b919082018092116117d457565b9190826101009103126108fe5761186a826117ea565b91602081015180600f0b81036108fe579160408201519160608101519160808201518060060b81036108fe57916118a360a08201611715565b9160c082015163ffffffff811681036108fe5760e06117b8919301611746565b600f0b6f7fffffffffffffffffffffffffffffff1981146117d45760000390565b60020b6000190190627fffff198212627fffff8313176117d457565b600291820b910b0390627fffff198212627fffff8313176117d457565b600160ff1b81146117d45760000390565b908160209103126108fe57516001600160a01b03811681036108fe5790565b60020b60010190627fffff8213627fffff198312176117d457565b9060020b9060020b0190627fffff198212627fffff8313176117d457565b919082039182116117d457565b9060ff8091169116039060ff82116117d457565b9060020b9060020b02908160020b9182036117d457565b90600290810b9183820b8015611f1a5760001995627fffff19858114838914166117d457828605956000938482129182611f0c575b5050611ee4575b5015611c8e57611a1a8460020b9060ff6101008360081d60010b93071690565b9060ff938483169860018a1b908101818111611c7a5790611a3a91611847565b936040519485809363299ce14b60e11b825260049560010b868301526020978891602496879160018060a01b03165afa908115611c6f578391611c3e575b501680159586159b8c600014611c245750818397611c205789929190600160801b811015611c12575b508868010000000000000000831015611be4575b640100000000831015611bca575b905062010000821015611bb0575b610100821015611b96575b85906010831015611b7c575b90821015611b55575b501015611b21575b50505091611b10611b199492611b1e979694611993565b16900b90611900565b6119a7565b91565b92938516600101929091858411611b45575091929150611b10905081611b19611af9565b634e487b7160e01b825260119052fd5b90821c961601868111611b6b5787909587611af1565b50634e487b7160e01b815260118352fd5b91908093501c961601868111611b6b578790958488611ae8565b9060088093501c961601868111611b6b5787909587611adc565b9060108093501c961601868111611b6b5787909587611ad1565b91908093501c961601868111611b6b578790953888611ac3565b9097604092831c93501601878111611c00579088919688611ab5565b5050634e487b7160e01b815260118352fd5b60809850881c915038611aa1565b8380fd5b9650505050505050611b1e94939150611b19920b90611900565b90508681813d8311611c68575b611c5581836116f3565b81010312611c64575138611a78565b8280fd5b503d611c4b565b6040513d85823e3d90fd5b634e487b7160e01b86526011600452602486fd5b909492611cb3611c9d8261194d565b60020b9060ff6101008360081d60010b93071690565b919060ff938484169860018a1b888101908111611ed05790602092916040519384809363299ce14b60e11b825260049760010b88830152602496879160018060a01b03165afa918215611c6f578392611e9c575b5019169788159485159b8c600014611e685750611d239061194d565b988095611c645787906001600160801b03811615611e5e575050607f5b67ffffffffffffffff861615611e54578716603f1901878111611c00575b63ffffffff861615611e4a578716601f1901878111611c00575b61ffff861615611e40578716600f1901878111611c00575b85881615611e3657871660071901878111611c00575b600f861615611e2d57871660031901878111611c00575b6003861615611e2257871660011901878111611c0057600190955b16611dff575b5050505091611df6611b199492611b1e979694611993565b16900b90611968565b9091929386160192858411611b455750611df69150839050611b1e611b19611dde565b94600190891c611dd8565b94841c94611dbd565b9460081c94611da6565b9460101c94611d90565b9460201c94611d78565b9460401c94611d5e565b60801c9550611d40565b99509193955050611e7a91935061194d565b95840392848411611b455750505091611b1e949391611b199316900b90611968565b9091506020813d602011611ec8575b81611eb8602093836116f3565b81010312611c6457519038611d07565b3d9150611eab565b634e487b7160e01b83526011600452602483fd5b9094840b908114611ef857860193386119fa565b634e487b7160e01b82526011600452602482fd5b07860b1515905038806119f3565b634e487b7160e01b600052601260045260246000fd5b818102929181159184041417156117d457565b8115611f1a570490565b60020b600081121561244d57611f628161191d565b620d89e88111612424576001811615612412576001600160881b036ffffcb933bd6fad37aa2d162d1a5940015b1691600282166123e6575b6004918281166123ba575b6008811661238e575b60108116612362575b60208116612336575b6040811661230a575b6080908181166122df575b61010081166122b4575b6102008116612289575b610400811661225e575b6108008116612233575b6110008116612208575b61200081166121dd575b61400081166121b2575b6180008116612187575b62010000811661215c575b620200008116612132575b6204000081166120f4575b62080000166120b5575b5060001261208f575b5063ffffffff8116612084576120806000915b6001600160a01b039260ff169060201c611847565b1690565b61208060019161206b565b81156120a057506000190438612058565b601290634e487b7160e01b6000525260246000fd5b6b048a170391f7dc42444e8fa2939193918281029281840414901517156120df571c91600061204f565b601183634e487b7160e01b6000525260246000fd5b936d2216e584f5fa1ea926041bedfe989081810291818304149015171561211d57811c93612045565b601184634e487b7160e01b6000525260246000fd5b936e5d6af8dedb81196699c329225ee6049081810291818304149015171561211d57811c9361203a565b936f09aa508b5b7a84e1c677de54f3e99bc99081810291818304149015171561211d57811c9361202f565b936f31be135f97d08fd981231505542fcfa69081810291818304149015171561211d57811c93612024565b936f70d869a156d2a1b890bb3df62baf32f79081810291818304149015171561211d57811c9361201a565b936fa9f746462d870fdf8a65dc1f90e061e59081810291818304149015171561211d57811c93612010565b936fd097f3bdfd2022b8845ad8f792aa58259081810291818304149015171561211d57811c93612006565b936fe7159475a2c29b7443b29c7fa6e889d99081810291818304149015171561211d57811c93611ffc565b936ff3392b0822b70005940c7a398e4b70f39081810291818304149015171561211d57811c93611ff2565b936ff987a7253ac413176f2b074cf7815e549081810291818304149015171561211d57811c93611fe8565b936ffcbe86c7900a88aedcffc83b479aa3a49081810291818304149015171561211d57811c93611fde565b936ffe5dee046a99a2a811c461f1969c30539081810291818304149015171561211d57811c93611fd4565b926fff2ea16466c96a3843ec78b326b52861908181029181830414901517156120df5760801c92611fc9565b926fff973b41fa98c081472e6896dfb254c0908181029181830414901517156120df5760801c92611fc0565b926fffcb9843d60f6159c9db58835c926644908181029181830414901517156120df5760801c92611fb7565b926fffe5caca7e10e4e61c3624eaa0941cd0908181029181830414901517156120df5760801c92611fae565b926ffff2e50f5f656932ef12357cf3c7fdcc908181029181830414901517156120df5760801c92611fa5565b916ffff97272373d413259a46990580e213a908181029181830414901517156117d45760801c91611f9a565b6001600160881b03600160801b611f8f565b60405162461bcd60e51b81526020600482015260016024820152601560fa1b6044820152606490fd5b80611f62565b9062ffffff809216620f4240039182116117d457565b91969295949293909290916001600160a01b03808516908216106126fb576124958587858a8c86613361565b966124ad62ffffff6124a683612453565b1689612def565b98876124ba8b838661319d565b946124c6838787613298565b966124d762ffffff6124a68c612453565b809a6124ef6124e7838786613088565b9d8e856130ec565b9a6124fb87828b613298565b92839161251562ffffff61250e86612453565b1684612def565b918d6125228a8a8a6132d2565b968791111591826126ee575b505015612559575050505050505050505050966117b861254f888498611986565b9594809493611986565b969e50969e50969e50969e9750975097509750858210156000146126975750505062ffffff61258a61259192612453565b1683612e59565b9560006001600160a01b03881161262257508660601b6001600160801b03821680820615159104015b6001600160a01b038a168110156108fe576126126125fa6117b8938c6125f261261b9560018060a01b039260018060a01b0316611986565b16809d613145565b9962ffffff8061260983612453565b1691168b61332d565b968685966130ec565b9287611986565b6001600160801b03821690612637828a612f95565b91801561268357600160601b8a09612650575b506125ba565b6000198083101561267f57821461266b57506001013861264a565b634e487b7160e01b81526011600452602490fd5b5080fd5b634e487b7160e01b82526012600452602482fd5b9397959650935097966126eb91506126d2906126ca6126c386976126bc88828c613088565b809a6130ec565b958b611986565b93809b613145565b979662ffffff806126e283612453565b1691168961332d565b94565b90915011158f869061252e565b612709878983888a88612cdb565b9661271a62ffffff6124a683612453565b98876127278b8386613088565b946127338387876130ec565b9661274462ffffff6124a68c612453565b809a61275c61275483878661319d565b9d8e85613298565b9a61276887828b6130ec565b92839161277b62ffffff61250e86612453565b918d6127888a8a8a613145565b9687911115918261284c575b5050156127b5575050505050505050505050966117b861254f888498611986565b959d50959d50959d50959d5097509750849c9550868210156000146128175750505061280e6125fa896128076117b8956127ff62ffffff6127f861261b98612453565b168a612e59565b9c8d91613228565b809d6132d2565b96868596613298565b9498969750945098976126eb92506126d291506128446126c3869761283d88828c61319d565b809a613298565b93809b6132d2565b90915011158f8690612794565b91909182810183811291600092838212908015821691151617611ed0578282951215911215036128865750565b80fd5b818103929160001380158285131691841216176117d457565b91909160006128b18483612889565b93121590831315036108fe57565b6001600160a01b0390808216906401000276a382101580612bf3575b15612bca57640100000000600160c01b039060201b1690816001600160801b03831160071b9280841c9167ffffffffffffffff831160061b92831c9463ffffffff861160051b95861c9360049661ffff8611881b95861c60ff9687821160031b91821c92600f841160021b93841c94600160038711811b96871c119617171717171717916080831015600014612bb65750607e198201828111612ba1571c5b607f198201918213600116612b8c578002607f928392828493841c81841c1c800280851c81851c1c800280861c81861c1c800280871c81871c1c80029081881c82881c1c80029283891c84891c1c800294858a1c868a1c1c800296878b1c888b1c1c800298898c1c8a8c1c1c80029a8b8d1c8c821c1c8002809d1c8d821c1c8002809e81901c90821c1c80029e8f80911c911c1c800260cd1c6604000000000000169d60cc1c6608000000000000169c60cb1c6610000000000000169b60ca1c6620000000000000169a60c91c6640000000000000169960c81c6680000000000000169860c71c670100000000000000169760c61c670200000000000000169660c51c670400000000000000169560c41c670800000000000000169460c31c671000000000000000169360c21c672000000000000000169260c11c674000000000000000169160c01c678000000000000000169060401b1717171717171717171717171717693627a301d71055774c85908181029181830514901517156120df576f028f6481ab7f045a5af012a19d003aa919810160018282131661211d5760801d60020b926fdb2df09e81959a81455e260799a0632f9160008382019384129112908015821691151617612b77575060801d60020b92828403612b5f575050905090565b612b6884611f4d565b1611612b72575090565b905090565b601190634e487b7160e01b6000525260246000fd5b601185634e487b7160e01b6000525260246000fd5b601186634e487b7160e01b6000525260246000fd5b905081607f03607f8111612ba1571b61297a565b60405162461bcd60e51b81526020600482015260016024820152602960f91b6044820152606490fd5b5073fffd8963efd1fc6a506488495d951d5263988d2682106128db565b9190600081600f0b12600014612c7557612c29906118c3565b6001600160801b038080941691168103928084116117d45783161015612c4b57565b60405162461bcd60e51b81526020600482015260026024820152614c5360f01b6044820152606490fd5b6001600160801b038080941691168101928084116117d457831610612c9657565b60405162461bcd60e51b81526020600482015260026024820152614c4160f01b6044820152606490fd5b8115611f1a57600160ff1b81146000198314166117d4570590565b92949190612d19612d2d6001600160801b039687811698612d206001600160801b0360601b94859360018060a01b0380941696879160601b16611f43565b948b612ee2565b9716908460601b16611f43565b958515612de25762ffffff809281612d4487612453565b16612d4e91612def565b612d589089611847565b81612d6288612453565b16612d6c91612def565b9880612d7791611f30565b94612d8190612453565b16921693612d8e90612453565b16612d9891611f30565b612da191612f27565b612daa9061341e565b90612db491611f30565b91612dbe91611f30565b612dc791612889565b90612dd191612cc0565b60008112612ddc5790565b50600090565b5050505050505050600090565b9060001981830981830291828083109203918083039214612e4d57620f424090828211156108fe577fde8f6cefed634549b62c77574f722e1ac57e23f24d8fd5cb790fb65668c26139940990828211900360fa1b910360061c170290565b5050620f424091500490565b90620f4240906000198284099282810292838086109503948086039514612ed457848311156108fe578291098160018119011680920460028082600302188083028203028083028203028083028203028083028203028083028203028092029003029360018380600003040190848311900302920304170290565b5050809250156108fe570490565b6000198282099082810292838084109303928084039314612f1e57600160601b91838311156108fe570990828211900360a01b910360601c1790565b50505060601c90565b9060001981830981830291828083109203918083039214612f875764e8d4a5100090828211156108fe577f77e12cab7520c63c04f1786181bbccfbb156301b10c40b343662e0e1cf503eb1940990828211900360f41b9103600c1c170290565b505064e8d4a5100091500490565b90600160601b90600019828409928060601b92838086109503948086039514612ed457848311156108fe578291098160018119011680920460028082600302188083028203028083028203028083028203028083028203028083028203028092029003029360018380600003040190848311900302920304170290565b916000198284099282810292838086109503948086039514612ed457848311156108fe578291098160018119011680920460028082600302188083028203028083028203028083028203028083028203028083028203028092029003029360018380600003040190848311900302920304170290565b916001600160a01b03916130c0918391908281116130d3576001600160801b036130b692169060601b611f43565b935b169283611847565b9182106108fe5781169081036108fe5790565b6001600160801b036130e6921690612f95565b936130b8565b6001600160a01b03929091908382168484161161313d575b838061311085856117bb565b1693169283156108fe576117b89461313893169160601b600160601b600160e01b0316613012565b611f43565b919091613104565b6001600160a01b03929082841684821611613197575b838061316783866117bb565b1691169384156108fe5761318b93169160601b600160601b600160e01b031661332d565b90808206151591040190565b9161315b565b91908115613223576001600160a01b039260609190911b600160601b600160e01b0316919083166131ce8183611f30565b816131d98483611f43565b14613207575b506131ed6131f49184611f43565b9182611847565b9081106108fe5780820615159104011690565b6132119084611847565b8381106131df5791506120809261332d565b505090565b91908115613223576001600160a01b039260609190911b600160601b600160e01b03169083168061326361325c8286611f30565b9485611f43565b148061328f575b156108fe5761327c6132829383611986565b9161332d565b9081169081036108fe5790565b5082821161326a565b6117b892916001600160801b03916001600160a01b03916132c49190838116848316116132cc576117bb565b169116612ee2565b906117bb565b6001600160a01b03916001600160801b03916132f891808516858316116132cc576117bb565b92169116906133078282612ee2565b91600160601b91096133165790565b600019808210156108fe5781146117d45760010190565b92919061333b828286613012565b938215611f1a570961334957565b90600019808210156108fe5781146117d45760010190565b6001600160801b03808316966001600160a01b039283169594909390926133b39290916133a9906133a290899060601b600160601b600160e01b0316611f43565b978a612ee2565b9716941684612ee2565b9480156134125762ffffff8091816133ca86612453565b166133d491612def565b6133de9088611847565b816133e885612453565b166133f291612def565b97806133fd91611f30565b9361340790612453565b1691612d8e90612453565b50505050505050600090565b8015612ddc576134e9816000908360801c8061354a575b508060401c8061353d575b508060201c80613530575b508060101c80613523575b508060081c80613516575b508060041c80613509575b508060021c806134fc575b50600191828092811c6134f5575b1c1b6134918185611f43565b01811c61349e8185611f43565b01811c6134ab8185611f43565b01811c6134b88185611f43565b01811c6134c58185611f43565b01811c6134d28185611f43565b01811c6134df8185611f43565b01901c8092611f43565b80821015612b72575090565b0181613485565b6002915091019038613477565b600491509101903861346c565b6008915091019038613461565b6010915091019038613456565b602091509101903861344b565b6040915091019038613440565b9150506080903861343556fea264697066735822122015daddc7954bc43712bdede6f5f2bfbb5c83ac64487a478badeb074606dd2d5564736f6c63430008180033","linkReferences":{}},"methodIdentifiers":{"optimalTwoPointArbInput(address,address,uint24,uint24)":"c1aaa926","optimalTwoPointArbInputPool(address,address,uint24,uint24,bool)":"3cfab67e"},"id":35}