{"abi":[{"type":"constructor","inputs":[{"name":"priviledgedUserList","type":"address[]","internalType":"address[]"}],"stateMutability":"nonpayable"},{"type":"receive","stateMutability":"payable"},{"type":"function","name":"algebraSwapCallback","inputs":[{"name":"amount0Delta","type":"int256","internalType":"int256"},{"name":"amount1Delta","type":"int256","internalType":"int256"},{"name":"data","type":"bytes","internalType":"bytes"}],"outputs":[],"stateMutability":"nonpayable"},{"type":"function","name":"owner","inputs":[],"outputs":[{"name":"","type":"address","internalType":"address"}],"stateMutability":"view"},{"type":"function","name":"pancakeV3SwapCallback","inputs":[{"name":"amount0Delta","type":"int256","internalType":"int256"},{"name":"amount1Delta","type":"int256","internalType":"int256"},{"name":"data","type":"bytes","internalType":"bytes"}],"outputs":[],"stateMutability":"nonpayable"},{"type":"function","name":"priviledgedUsers","inputs":[{"name":"","type":"address","internalType":"address"}],"outputs":[{"name":"","type":"bool","internalType":"bool"}],"stateMutability":"view"},{"type":"function","name":"processRoute","inputs":[{"name":"route","type":"bytes","internalType":"bytes"}],"outputs":[],"stateMutability":"payable"},{"type":"function","name":"renounceOwnership","inputs":[],"outputs":[],"stateMutability":"nonpayable"},{"type":"function","name":"setPriviledge","inputs":[{"name":"user","type":"address","internalType":"address"},{"name":"priviledge","type":"bool","internalType":"bool"}],"outputs":[],"stateMutability":"nonpayable"},{"type":"function","name":"transferOwnership","inputs":[{"name":"newOwner","type":"address","internalType":"address"}],"outputs":[],"stateMutability":"nonpayable"},{"type":"function","name":"uniswapV3SwapCallback","inputs":[{"name":"amount0Delta","type":"int256","internalType":"int256"},{"name":"amount1Delta","type":"int256","internalType":"int256"},{"name":"data","type":"bytes","internalType":"bytes"}],"outputs":[],"stateMutability":"nonpayable"},{"type":"function","name":"withdraw","inputs":[{"name":"token","type":"address","internalType":"address"},{"name":"amount","type":"uint256","internalType":"uint256"}],"outputs":[],"stateMutability":"nonpayable"},{"type":"event","name":"OwnershipTransferred","inputs":[{"name":"previousOwner","type":"address","indexed":true,"internalType":"address"},{"name":"newOwner","type":"address","indexed":true,"internalType":"address"}],"anonymous":false},{"type":"error","name":"AddressEmptyCode","inputs":[{"name":"target","type":"address","internalType":"address"}]},{"type":"error","name":"AddressInsufficientBalance","inputs":[{"name":"account","type":"address","internalType":"address"}]},{"type":"error","name":"FailedInnerCall","inputs":[]},{"type":"error","name":"OwnableInvalidOwner","inputs":[{"name":"owner","type":"address","internalType":"address"}]},{"type":"error","name":"OwnableUnauthorizedAccount","inputs":[{"name":"account","type":"address","internalType":"address"}]},{"type":"error","name":"SafeERC20FailedOperation","inputs":[{"name":"token","type":"address","internalType":"address"}]}],"bytecode":{"object":"0x6040608060405234620001815762001b03908138038062000020816200019c565b9384398201906020908184840312620001815783516001600160401b03948582116200018157019280601f850112156200018157835194851162000186576005938560051b908480620000758185016200019c565b80998152019282010192831162000181578401905b82821062000160575050503315620001475760008054336001600160a01b03198216811783556001600160a01b039182167f8be0079c531659141344cd1fd0a4f28419497f9722a3daafe3b4186f6b6457e08480a3600280546001600160a81b03191674010000000000000000000000000000000000000001179055815b8651811015620001375780861b8701850151821683526001808652848420805460ff1916821790550162000108565b6040516119409081620001c38239f35b604051631e4fbdf760e01b815260006004820152602490fd5b81516001600160a01b0381168103620001815781529084019084016200008a565b600080fd5b634e487b7160e01b600052604160045260246000fd5b6040519190601f01601f191682016001600160401b03811183821017620001865760405256fe6080604052600436101561001b575b361561001957600080fd5b005b60003560e01c806323a69e75146100b75780632c8958f61461008f578063715018a6146100b25780638da5cb5b146100ad5780639a1f3406146100a8578063b3ae32a2146100a3578063cd0fb7a71461009e578063f2fde38b14610099578063f3fef3a3146100945763fa461e330361000e575b6100b7565b61056f565b6104e7565b6104a8565b610414565b610319565b6102d0565b610272565b346102625760603660031901126102625760243560043567ffffffffffffffff604435818111610262573660238201121561026257806004013591821161026257366024838301011161026257600254926001600160a01b039061011e33838716146106ec565b60009561016461014b888413958660001461025b5784975b6101418b8a1361075e565b60243692016103dd565b9060405191604083016040528083528051016020830152565b916101758390601482510180519252565b94600160ff819960a01c161460001461024a576002805460ff60a01b1916600160a11b1790551561023857506101aa906107e6565b9085915b955b6101fa575b50506101c6836101e19510156107fc565b600280546001600160a01b0319166001179055339116610860565b6002805460ff60a01b1916600160a01b17905580f35b80f35b909461020b82602081519101511190565b156102325761022a906102248390601482510180519252565b836108a3565b9490816101b0565b946101b5565b61024291506107e6565b9085916101ae565b505050506101f79350339116610860565b8397610136565b600080fd5b600091031261026257565b34610262576000806003193601126102cd5761028c610834565b80546001600160a01b03198116825581906001600160a01b03167f8be0079c531659141344cd1fd0a4f28419497f9722a3daafe3b4186f6b6457e08280a380f35b80fd5b34610262576000366003190112610262576000546040516001600160a01b039091168152602090f35b600435906001600160a01b038216820361026257565b8015150361026257565b34610262576040366003190112610262576103326102f9565b6024359061033f8261030f565b610347610834565b60018060a01b0316600052600160205260406000209060ff801983541691151516179055600080f35b634e487b7160e01b600052604160045260246000fd5b67ffffffffffffffff811161039a57604052565b610370565b90601f8019910116810190811067ffffffffffffffff82111761039a57604052565b67ffffffffffffffff811161039a57601f01601f191660200190565b9291926103e9826103c1565b916103f7604051938461039f565b829481845281830111610262578281602093846000960137010152565b60203660031901126102625760043567ffffffffffffffff81116102625736602382011215610262576104756104576100199236906024816004013591016103dd565b6000546001600160a01b03163314801561048f575b61014b90610657565b8051603460148201918251928452019182519281526108a3565b503360009081526001602052604090205460ff1661046c565b34610262576020366003190112610262576001600160a01b036104c96102f9565b166000526001602052602060ff604060002054166040519015158152f35b34610262576020366003190112610262576105006102f9565b610508610834565b6001600160a01b03908116801561055657600080546001600160a01b03198116831782559092167f8be0079c531659141344cd1fd0a4f28419497f9722a3daafe3b4186f6b6457e08380a380f35b604051631e4fbdf760e01b815260006004820152602490fd5b34610262576040366003190112610262576105886102f9565b6000805490918291602435916001600160a01b0391821633148015610641575b6105b190610657565b1673eeeeeeeeeeeeeeeeeeeeeeeeeeeeeeeeeeeeeeee8103610635575081808092335af16105dd6106bc565b50156105e65780f35b60405162461bcd60e51b815260206004820152602160248201527f4572726f72206f63637572726564207769746864726177696e67206e617469766044820152606560f81b6064820152608490fd5b6101f792503390610860565b503384526001602052604084205460ff166105a8565b1561065e57565b60405162461bcd60e51b815260206004820152603060248201527f52503a2063616c6c6572206973206e6f7420746865206f776e6572206f72206160448201526f10383934bb34b632b3b2b2103ab9b2b960811b6064820152608490fd5b3d156106e7573d906106cd826103c1565b916106db604051938461039f565b82523d6000602084013e565b606090565b156106f357565b60405162461bcd60e51b815260206004820152603e60248201527f526f75746550726f636573736f722e756e697377617056335377617043616c6c60448201527f6261636b3a2063616c6c2066726f6d20756e6b6e6f776e20736f7572636500006064820152608490fd5b1561076557565b60405162461bcd60e51b815260206004820152603960248201527f526f75746550726f636573736f722e756e697377617056335377617043616c6c60448201527f6261636b3a206e6f7420706f73697469766520616d6f756e74000000000000006064820152608490fd5b634e487b7160e01b600052601160045260246000fd5b600160ff1b81146107f75760000390565b6107d0565b1561080357565b60405162461bcd60e51b8152602060048201526009602482015268139bc81c1c9bd99a5d60ba1b6044820152606490fd5b6000546001600160a01b0316330361084857565b60405163118cdaa760e01b8152336004820152602490fd5b60405163a9059cbb60e01b60208201526001600160a01b039290921660248301526044808301939093529181526108a19161089c60648361039f565b61097b565b565b919060ff6108b78490600182510180519252565b16806108cc57506108c7926114a4565b600090565b600181036108e157506108de9261114b565b90565b600281036108f357506108c792610ef8565b60038103610907575050506108c790610e0e565b600403610917576108c792610a80565b60405162461bcd60e51b815260206004820152602160248201527f526f75746550726f636573736f723a20556e6b6e6f776e20706f6f6c207479706044820152606560f81b6064820152608490fd5b9081602091031261026257516108de8161030f565b6000806109a49260018060a01b03169360208151910182865af161099d6106bc565b90836118a7565b80519081151591826109d2575b50506109ba5750565b60249060405190635274afe760e01b82526004820152fd5b6109e59250602080918301019101610966565b1538806109b1565b90816020910312610262575190565b6040513d6000823e3d90fd5b919082039182116107f757565b15610a1c57565b60405162461bcd60e51b815260206004820152603660248201527f526f75746550726f636573736f722e7377617043757276653a204e6174697665604482015275081d1bdad95b881d1c985b9cd9995c8819985a5b195960521b6064820152608490fd5b9190610a928390601482510180519252565b92610aa38190600182510180519252565b610abf610ab68390600182510180519252565b60ff1660000b90565b936000958695860b94610adb610ab68690600182510180519252565b870b90610afe610af18790601482510180519252565b9690601482510180519252565b6001600160a01b0398909773eeeeeeeeeeeeeeeeeeeeeeeeeeeeeeeeeeeeeeee968a939192918416888103610c0a575050604051630f7c084960e21b8152600f92830b60048201529390910b60248401525060448201849052600060648301529092602092849260849284929091165af1908115610c05578691610bd6575b50935b80831693308503610b95575b50505050505050565b16908103610bc45750509180808093610bb8955af1610bb26106bc565b50610a15565b38808080808080610b8c565b909150610bd19350610860565b610bb8565b610bf8915060203d602011610bfe575b610bf0818361039f565b8101906109ed565b38610b7d565b503d610be6565b6109fc565b90610c22888860ff94979695973315610db55761174e565b5016610c9957604051630f7c084960e21b8152600f91820b600482015293900b6024840152604483019490945260006064830152909260209284926084928492165af1908115610c05578691610c7a575b5093610b80565b610c93915060203d602011610bfe57610bf0818361039f565b38610c73565b6040516370a0823160e01b808252306004830152602097938b1695909450908781602481895afa968715610c05578c918e98610d96575b501691823b15610d9257604051630f7c084960e21b8152600f91820b600482015291900b60248201526044810192909252600060648301529091908a908390608490829084905af1918215610c05578592610d79575b5060405190815230600482015291829060249082905afa908115610c0557610d56938992610d5c575b5050610a08565b93610b80565b610d729250803d10610bfe57610bf0818361039f565b3880610d4f565b80610d86610d8c92610386565b80610267565b38610d26565b8c80fd5b610dae919850893d8b11610bfe57610bf0818361039f565b9638610cd0565b610dc1833033846116f5565b61174e565b60005b838110610dd95750506000910152565b8181015183820152602001610dc9565b90602091610e0281518092818552858086019101610dc6565b601f01601f1916010190565b6020610e5160009280516014810191825192815260348083019283510101905260405194858094819363313eeab560e11b83528760048401526024830190610de9565b03926001600160a01b03165af18015610c0557610e6b5750565b610e839060203d602011610bfe57610bf0818361039f565b50565b15610e8d57565b60405162461bcd60e51b815260206004820152603760248201527f526f75746550726f636573736f722e777261704e61746976653a204e6174697660448201527f6520746f6b656e207472616e73666572206661696c65640000000000000000006064820152608490fd5b9190610f0a8390600182510180519252565b92610f1b8190601482510180519252565b91600185811603610fb357508051601401805191529260021615610f65575b6001600160a01b033082821603610f52575b50505050565b610f5c9316610860565b38808080610f4c565b6001600160a01b038316803b156102625760008391600460405180948193630d0e30db60e41b83525af18015610c0557610fa0575b50610f3a565b80610d86610fad92610386565b38610f9a565b9193600291501615610fe7575b506108a1916000918291829182916001600160a01b03165af1610fe16106bc565b50610e86565b3315611059575b6001600160a01b031691823b1561026257604051632e1a7d4d60e01b815260048101839052926000908490602490829084905af1928315610c055760008093819382936108a197611046575b50955093505050610fc0565b80610d8661105392610386565b3861103a565b61106e8230336001600160a01b0385166116f5565b610fee565b601492916bffffffffffffffffffffffff199060601b16815261109f8251809360208685019101610dc6565b010190565b9190826040910312610262576020825192015190565b6001600160a01b039182168152911515602083015260408201929092529116606082015260a0608082018190526108de92910190610de9565b156110fa57565b60405162461bcd60e51b8152602060048201526024808201527f526f75746550726f636573736f722e73776170556e6956333a20756e6578706560448201526318dd195960e21b6064820152608490fd5b90929161115e8290601482510180519252565b9060ff6111718490600182510180519252565b16151591600093600254600260ff8260a01c1614611344575b50600280546001600160a01b0319166001600160a01b0384161790556112389260409290916001600160a01b03986000908a908815611329576401000276a4935b600160ff6111df60025460ff9060a01c1690565b161484146112f95780516020909101518190038152611218909161120a895193849260208401611073565b03601f19810183528261039f565b945b8651630251596160e31b8152978896879586938c30600487016110ba565b0393165af1918215610c05576000916000936112c6575b50156112b7575061125f906107e6565b9261128260025491600260ff8460a01c161490819382156112aa575b50506110f3565b6112895750565b600280546001600160a01b0319166001600160a01b03909216919091179055565b600192501614388061127b565b6112c191506107e6565b61125f565b9092506112eb915060403d6040116112f2575b6112e3818361039f565b8101906110a4565b913861124f565b503d6112d9565b50865160609190911b6bffffffffffffffffffffffff19166020820152611323816034810161120a565b9461121a565b73fffd8963efd1fc6a506488495d951d5263988d25936111cb565b6001600160a01b03169450604061118a565b51906001600160701b038216820361026257565b908160609103126102625761137e81611356565b91604061138d60208401611356565b92015163ffffffff811681036102625790565b156113a757565b60405162461bcd60e51b815260206004820152601360248201527257726f6e6720706f6f6c20726573657276657360681b6044820152606490fd5b9062ffffff809216620f4240039182116107f757565b90620f4240918281029281840414901517156107f757565b818102929181159184041417156107f757565b919082018092116107f757565b811561143a570490565b634e487b7160e01b600052601260045260246000fd5b6040516020810181811067ffffffffffffffff82111761039a5760405260008152906000368137565b90926080926108de95948352602083015260018060a01b031660408201528160608201520190610de9565b80516014018051908252926114bf8290600182510180519252565b6114df6114d28490601482510180519252565b9390600382510180519252565b91306116cd576114f990866001600160a01b038716610860565b604051630240bc6b60e21b81526001600160a01b038681169691959091906060876004818b5afa968715610c0557600090600098611693575b5060ff6001916001600160701b038091169916958915158061168a575b611558906113a0565b161496871561167d576020916115979195935b6040516370a0823160e01b81526001600160a01b03909116600482015294859283919082906024820190565b0392165afa938415610c05576115e86115e16115ee926115db6115d36115cd896115f99b6115f39a60009161165e575b50610a08565b926113e2565b62ffffff1690565b90611410565b9283611410565b936113f8565b611423565b90611430565b911561165657600091925b61160c611450565b93813b1561026257600080946116386040519788968795869463022c0d9f60e01b865260048601611479565b03925af18015610c05576116495750565b80610d866108a192610386565b600092611604565b611677915060203d602011610bfe57610bf0818361039f565b386115c7565b916020916115979161156b565b5086151561154f565b60ff9850600191506116bc9060603d6060116116c6575b6116b4818361039f565b81019061136a565b5098909150611532565b503d6116aa565b33156116da575b506114f9565b6116ef9086336001600160a01b0388166116f5565b386116d4565b6040516323b872dd60e01b60208201526001600160a01b03928316602482015292909116604483015260648083019390935291815260a081019181831067ffffffffffffffff84111761039a576108a19260405261097b565b909161175b818484611826565b928315611769575b50505090565b9091925060018060a01b03604051602081019163095ea7b360e01b835280841660248301526000604483015260448252608082019282841067ffffffffffffffff85111761039a5760008094938194604052519288165af1926117ca6106bc565b846117f4575b50836117e2575b505050388080611763565b6117ec9350611826565b3880806117d7565b8051919450811591821561180c575b505092386117d0565b61181f9250602080918301019101610966565b3880611803565b60405163095ea7b360e01b602082019081526001600160a01b03909316602482015260448101939093526000928392908390611865816064810161120a565b51926001600160a01b03165af161187a6106bc565b81611883575090565b805180159250821561189457505090565b6108de9250602080918301019101610966565b906118ce57508051156118bc57805190602001fd5b604051630a12f52160e11b8152600490fd5b81511580611901575b6118df575090565b604051639996b31560e01b81526001600160a01b039091166004820152602490fd5b50803b156118d756fea264697066735822122052a436e14d76584a532f60dcfea5dfd6fb8177b57a52ac608a318159ed24eeb064736f6c63430008180033","linkReferences":{}},"methodIdentifiers":{"algebraSwapCallback(int256,int256,bytes)":"2c8958f6","owner()":"8da5cb5b","pancakeV3SwapCallback(int256,int256,bytes)":"23a69e75","priviledgedUsers(address)":"cd0fb7a7","processRoute(bytes)":"b3ae32a2","renounceOwnership()":"715018a6","setPriviledge(address,bool)":"9a1f3406","transferOwnership(address)":"f2fde38b","uniswapV3SwapCallback(int256,int256,bytes)":"fa461e33","withdraw(address,uint256)":"f3fef3a3"},"id":26}